S016000062617468726F6F6D5F7363616C652E737265634B
S11300000C9434000C94D8000C9451000C945100BE
S11300100C9451000C9451000C9451000C94510018
S11300200C9451000C9451000C9451000C94AF00AA
S11300300C9451000C9451000C9451000C945100F8
S11300400C9451000C9451000C9451000C945100E8
S11300500C9451000C9451000C9451000C945100D8
S11300600C9451000C94510011241FBECFEFD8E022
S1130070DEBFCDBF11E0A0E0B1E0ECE6F2E002C0EB
S113008005900D92A230B107D9F721E0A2E0B1E0CA
S113009001C01D92A430B207E1F70E9473000C94D2
S11300A034010C940000ECE7F0E0808180648083EC
S11300B0EAE7F0E08081866880830895ECE7F0E069
S11300C020819081987F922B892B8083EAE7F0E04E
S11300D0808180648083808186FDFDCF809178005B
S11300E09091790008950E94EE00209A289AD1E018
S11300F08091000190910101892BA1F02898F89436
S11301000E940E0185B18D2785B9F8940E94E700FD
S11301100E94EE000E94F6000E9420010E945300FB
S11301207894E6CF8091000190910101892B01F729
S11301302FE788E391E0215080409040E1F700C030
S1130140000080E00E945E00C82F892F0E942C01CD
S11301508C2F0E942C018AE00E942C01C9CF1F928F
S11301600F920FB60F9211248F939F9380910201E7
S113017090910301892B61F0109203011092020106
S113018081E090E09093010180930001F89409C00C
S11301908091020190910301019690930301809351
S11301A002019F918F910F900FBE0F901F90189591
S11301B01F920F920FB60F92112410920101109208
S11301C00001F8940F900FBE0F901F901895E1E670
S11301D0F0E080E8808382E0808308955A9AE9E61B
S11301E0F0E0808183608083E89A0895109285000E
S11301F010928400E1E8F0E080818860808380814F
S11302008560808384E294EF9093890080938800D2
S1130210EFE6F0E0808182608083089583B7846094
S113022083BF83B7816083BF789483B7816083BFC2
S1130230889583B78E7F83BF83B78E7F83BF0895EE
S11302401092C50089E18093C40086E08093C200C7
S113025088E18093C1000895E0ECF0E0908195FF7F
S10F0260FDCF8093C6000895F894FFCFF2
S105026C01008B
S9030000FC
